:020000040000FA
:1000000001288312031383168801C73087008901F2
:1000100007309F0081138312061C1A28C130A000EC
:10002000A130A1008830A200A330A300A400A50045
:1000300028200C288630A000C730A1008630A200FE
:10004000C630A3008730A400AF30A50028200C28BC
:10005000871507168716FF3089008711200888004A
:100060004C2087150712210888004C20071687129C
:10007000220888004C2087160910230888004C208D
:1000800009148910240888004C20891409112508B6
:1000900088004C20091508002830A7000A30A60067
:1000A000522008002608A800A9002708AA00A80BCB
:1000B00057282608A800A90B57282608A900AA0B2C
:0400C00057280800B5
:00000001FF
