:020000040000FA
:020000000528D1
:08000800252883120313A60151
:10001000A001A101A201A301A401A50183168801E9
:100020008901C7308700FF30860007309F00043009
:10003000810020308B00831281018B1706181E2847
:100040007420061C212899201E28A700030EA90051
:100050000408A8000B1D5A28871507168716FF30BD
:100060008900203084002608023C03193928031C2B
:100070004428260862200739AF000310AF0DAF0DEA
:10008000AF0D2F0887054E2826086220AF01AF006C
:100090000310AF0CAF0CAF0C2F08890026088407A3
:1000A0000008692088002608053C031D5928A60180
:1000B0005A28A60A0B1128088400290E8300A70ECF
:1000C000270E09008207FE34FD34FB34F734EF3489
:1000D000DF348207C034F934A434B0349934923414
:1000E0008234B83480349834A50A25080A3C031DAC
:1000F0000800A501A40A24080A3C031D0800A40165
:10010000A30A23080A3C031D0800A301A20A22082F
:100110000A3C031D0800A201A10A21080A3C031D94
:100120000800A101A00A20080A3C031D0800A00144
:1001300008006430AE002C30AD009F2008002D0870
:10014000AA00AB002E08AC00AA0BA4282D08AA0018
:0E015000AB0BA4282D08AB00AC0BA4280800B4
:00000001FF
