:020000040000FA
:020000000528D1
:08000800242883120313A60152
:100010000830A000A100A200A300A400A500831640
:1000200088018901C7308700FF30860007309F00B4
:100030000430810020308B00831281018B17061859
:100040001F28732098201F28A700030EA90004086A
:10005000A8000B1D5928871507168716FF30890041
:10006000203084002608023C03193828031C43284A
:10007000260861200739AF000310AF0DAF0DAF0D9B
:100080002F0887054D2826086120AF01AF00031017
:10009000AF0CAF0CAF0C2F088900260884070008AE
:1000A000682088002608053C031D5828A601592809
:1000B000A60A0B1128088400290E8300A70E270E1C
:1000C00009008207FE34FD34FB34F734EF34DF34AB
:1000D0008207C034F934A434B03499349234823471
:1000E000B83480349834A50A25080A3C031D08005A
:1000F000A501A40A24080A3C031D0800A401A30AC0
:1001000023080A3C031D0800A301A20A22080A3C96
:10011000031D0800A201A10A21080A3C031D0800D2
:10012000A101A00A20080A3C031D0800A001080044
:100130006430AE002C30AD009E2008002D08AA00CF
:10014000AB002E08AC00AA0BA3282D08AA00AB0B0D
:0C015000A3282D08AB00AC0BA32808006E
:00000001FF
