:020000040000FA
:020000000528D1
:08000800372883120313A6013F
:100010006430AE002C30AD00831688018901C730F2
:100020008700F030860007309F00043081002030C8
:100030008B00831281018B171030A000A100A20059
:10004000A300A400A5009D20321C23282108A000A5
:100050002208A1002308A2002408A3002508A40068
:100060003108A5009D20321832287B202328A700C4
:10007000030EA9000408A8000B1D6C28871507169D
:100080008716FF308900203084002608023C0319BF
:100090004B28031C5628260874200739AF0003108C
:1000A000AF0DAF0DAF0D2F0887056028260874200F
:1000B000AF01AF000310AF0CAF0CAF0C2F088900DD
:1000C0002608840700088B2088002608053C031DAD
:1000D0006B28A6016C28A60A0B1128088400290E9B
:1000E0008300A70E270E09008207FE34FD34FB347F
:1000F000F734EF34DF342D08AA00AB002E08AC0033
:10010000AA0B80282D08AA00AB0B80282D08AB0075
:10011000AC0B802808008207F934A434B03488344A
:100120009934923482348334B83480349834C63469
:100130009C34C034A334A134BF34B101B201F730D0
:100140008600861FB328B10A061FB328B10A861E8F
:10015000B328B10A061EB328B10A3108103C031DAA
:10016000B52832100800321408000314860CA128A8
:00000001FF
