:020000040000FA
:10000000A00104308A0020080024A1008A012008F1
:0E001000FA3C03190D28A00A0128A0010128BE
:1008000082070034013402340334043405340634DE
:100810000734083409340A340B340C340D340E34E4
:100820000F34103411341234133414341534163494
:1008300017341834003401340234033404340534DA
:1008400006340734083409340A340B340C340D34BC
:100850000E340F341034113412341334143415346C
:100860001634173418340034013402340334043499
:10087000053406340734083409340A340B340C3494
:100880000D340E340F341034113412341334143444
:100890001534163417341834003401340234033458
:1008A0000434053406340734083409340A340B346C
:1008B0000C340D340E340F3410341134123413341C
:1008C0001434153416341734183400340134023417
:1008D00003340434053406340734083409340A3444
:1008E0000B340C340D340E340F34103411341234F4
:1008F00013341434153416341734183400340134D6
:10090000023403340434053406340734083409341B
:100910000A340B340C340D340E340F3410341134CB
:100920001234133414341534163417341834003494
:1009300001340234033404340534063407340834F3
:1009400009340A340B340C340D340E340F341034A3
:100950001134123413341434153416341734183453
:1009600000340134023403340434053406340734CB
:10097000083409340A340B340C340D340E340F347B
:10098000103411341234133414341534163417342B
:10099000183400340134023403340434053406348A
:1009A0000734083409340A340B340C340D340E3453
:1009B0000F34103411341234133414341534163403
:1009C0001734183400340134023403340434053449
:1009D00006340734083409340A340B340C340D342B
:1009E0000E340F34103411341234133414341534DB
:0609F00016341734183420
:00000001FF
