:020000040000FA
:020000000528D1
:08000800302883120313A60146
:100010008030AE001E30AD00831688018901C730E4
:10002000870007309F000430810020308B0083124E
:1000300081017A208B178220B0017A208220203023
:10004000840030087320B100300884073108800034
:100050003008053C03191B28B00A82201F282F28CE
:10006000A700030EAC000408A8000B1D6428871528
:1000700007168716FF308900203084002608023CCE
:1000800003194428031C4F2826086C200739AF00A9
:100090000310AF0DAF0DAF0D2F08870559282608A7
:1000A0006C20AF01AF000310AF0CAF0CAF0C2F08EA
:1000B000890026088407000888002608053C031DDF
:1000C0006328A6016428A60A0B11280884002C0EB8
:1000D0008300A70E270E09008207FE34FD34FB348F
:1000E000F734EF34DF348207A3349C34A3349C34D8
:1000F000A3349C34FF30A000A100A200A300A40000
:10010000A50008002D08A900AA002E08AB00A90B25
:1001100087282D08A900AA0B87282D08AA00AB0B59
:040120008728080024
:00000001FF
